:10502C0020202020003230002D0020200053756EEF
:10503C0020004D6F6E20005475652000576564206C
:10504C00005468752000467269200053617420007A
:10505C003A002020202020202020002020536561B1
:10506C007263680020436F6E6E65637400D7D4B6AC
:10507C00AFC4A3CABD00CAD6B6AFC4A3CABD002074
:10508C00202020CFC2D0D00020202020C9CFD0D0CB
:10509C000020202020CEBBD6C3B4EDCEF3202020A0
:1050AC002000C7EBB5BDB8BDBDFCD5BEB5E3B6A8F9
:1050BC00CEBB00BBB6D3ADB3CBD7F8B1BEB4CEB973
:1050CC00ABBDBB0020202020CFC2D2BBD5BE202040
:1050DC00202020200020202020D6D5B5E3D5BE20CE
:1050EC00202020202000202020202020B5BDD5BE4F
:1050FC002020202020200020202020CFB5CDB3C997
:10510C00E8D6C32020202000B3B5D5BE2020202017
:10511C003A2000D2F4C1BFB4F3D0A13A2000D7D4C6
:10512C00B6AFD0A3CAB13A200020202020202020E6
:10513C0000BFAA2020202000B9D82020202000BEAB
:10514C00ADCEB3B6C8CFD4CABE3A202020202000A2
:10515C00CEB3B6C83A002E002000BEADB6C83A0099
:10516C002020B3B5D5BECFC2D0D0002020B3B5D54A
:10517C00BEC9CFD0D000244750474C4C2C002447FC
:10518C0050524D432C000003030601040602050097
:10519C0003052020B6AFCEEFD4B0D7DCD5BE20208F
:1051AC002020002020C9B3BAD3B6A5D5BE2020201C
:1051BC0020A1A1002020C9B3BAD3B4F3BDD6D5BE6B
:1051CC002020A1A1002020BEFCCCE5D4BAD5BE2065
:1051DC00202020A1A1002020CAA1BEFCC7F8D5BE6A
:1051EC0020202020A1A1002020D1E0CCC1C6F3D2E8
:1051FC00B5D5BE2020A1A1002020CEE4BEAFD2BDEB
:10520C00D4BAD5BE2020A1A1002020D2F8BAD3D484
:10521C00B0D5BE20202020A1A1002020CCECBAD3F8
:10522C00BFCDD4CBD5BE2020A1A1002020C9CFD486
:10523C00AAB8DAD5BE20202020A1A1002020202051
:10524C00B2E2CAD4C9CFD0D03131202000202020E6
:10525C0020B2E2CAD4C9CFD0D031322020002020D5
:10526C002020B2E2CAD4C9CFD0D0313320200020C4
:10527C00202020B2E2CAD4C9CFD0D03134202000B3
:10528C0020202020B2E2CAD4C9CFD0D03135202082
:10529C00002020C9CFD4AAB8DAD5BE20202020A166
:1052AC00A1002020CCECBAD3BFCDD4CBD5BE2020CE
:1052BC00A1A1002020D2F8BAD3D4B0D5BE20202092
:1052CC0020A1A1002020CEE4BEAFD2BDD4BAD5BE61
:1052DC002020A1A1002020D1E0CCC1C6F3D2B5D5AD
:1052EC00BE2020A1A1002020CAA1BEFCC7F8D5BEBB
:1052FC0020202020A1A1002020BEFCCCE5D4BAD5D2
:10530C00BE20202020A1A1002020C9B3BAD3B4F321
:10531C00BDD6D5BE2020A1A1002020C9B3BAD3B6DA
:10532C00A5D5BE20202020A1A1002020B6AFCEEF15
:10533C00D4B0D7DCD5BE202020200020202020B2E5
:10534C00E2CAD4CFC2D0D03131202000202020207E
:10535C00B2E2CAD4CFC2D0D03132202000202020DB
:10536C0020B2E2CAD4CFC2D0D031332020002020CA
:10537C002020B2E2CAD4CFC2D0D0313420200020B9
:10538C00202020B2E2CAD4CFC2D0D03135202000A8
:1056E1004700640000000000000047006B0000005C
:1056F10000000000470072000000000000004700A9
:105701007900000000000000470080000000000058
:105711000000C10BC10CC10EC10FC110C111C100EC
:10572100C101015B00016101C10DC102015000C154
:1057310006016700015A00017100C105014F130103
:105741006E0AC103C10AC1870151000265006402EA
:105751006F0064C184017200C10847008700000026
:0C57610000000000C189015C000168002C
:105D7C00E4FEC280EF25E0FF9281D280C2800EBE8D
:025D8C0008F01D
:015D8E0022F2
:105B2400E4FFFEFDEE25E0FEC280D280C28030811B
:105B3400010E0DBD08EEE4FDEF25E0FFC280D2802A
:105B4400C2803081010F0DBD08EEEF540FFFEE54FB
:035B5400F02FFF30
:015B5700222B
:0D5D8F007FFC125D7C125B24EF20E7F42204
:1058EF00D2139000C6C3E550956EFFE49400FE7589
:1058FF00F004EF125020EE25E025E02583F5837BA1
:10590F00807A967998E0FCA3E0FDA3E0FEA3E0FF88
:10591F007800124F63E47B0AFAF9F8124F63EB2415
:03592F0030F5410F
:10593200D282125D8F2013047FF880027FFA125DFB
:105942007CE54154F0FF125D7CE541C454F0FF1246
:055952005D7CC2822211
:065CD0007BFF7A517962AE
:105CD600124E22FF6010D213F54112593274012977
:075CE600F9E43AFA80EA221A
:105C3F00C213754130125932C213754103125932D2
:105C4F00C21375410C125932C213754101125932E8
:085C5F00C2137541060259321F
:0A5A5900F583125014E4FDFC7F02F7
:105A6300AB078D828C83EB14600C14600D14600EF5
:105A730024037B80800A7B9080067B8880027B984E
:105A8300538207758300C213754130125932C21312
:105A9300AF82EF2BF541125932C213AF82EF2BF5D0
:045AA3004102593231
:105C6700C213754130125932C2137541801259322D
:105C7700E4FCD2137541201259320CBC40F4E4FD08
:055C8700FCFF025A635E
:105BBC0074642FFF1313543F2F75F00784AEF0EE6F
:105BCC002BFEED905191932EFEEF54037007EDC315
:0C5BDC00940350011EEE75F00784AFF03A
:015BE800229A
:105A0500900080E0FD7F80125A2CA3E0FD7F82127A
:105A15005A2CA3E0FD7F84125A2CA3E0FD7F861249
:075A25005A2CA3E0FD7F886D
:105A2C00C2A2C2A0D2A2E4FEEF1392A1EFC313FF55
:105A3C00D2A0C2A00EBE08F0E4FEED1392A1EDC3FD
:0C5A4C0013FDD2A0C2A00EBE08F0C2A242
:015A5800222B
:105AE600C2A2C2A0D2A2E4FDEF1392A1EFC313FF9C
:105AF600D2A0C2A00DBD08F0E4FDA2A1E433FFC40C
:105B06003333335480FCEEC3134CFED2A0C2A00D37
:0D5B1600BD08E7C2A2D2A0C2A1D2A1AF0675
:015B2300225F
:10000E00AE071FEE600DE4FCFD0DED70010C4C60B3
:03001E00EF80F67A
:0100210022BC
:0D5D9C00E4F5E7F5E5F5E675E380F5E422B2
:105D3B0075E78175E5018FE48EE375E64675E6B987
:065D4B0000AFE2125D9CB6
:015D5100222F
:105D520075E78175E5028FE48EE38DE275E646759F
:065D6200E6B900025D9CA1
:105D680075E78175E5038FE48EE375E64675E6B958
:045D780000025D9C2C
:0E57FA008E408F418C428D438B448A458946F8
:10580800E4F547F548F549F54AF54BF54C125D685E
:10581800E4F547F548C3E5489543E54795425048C0
:10582800AB44AA45A946854882854783124E3BFD6D
:10583800AF41AE40125D52AF41AE40125D3BAB444A
:10584800AA45A946854882854783124E3B6F600664
:10585800125D9C7F00220541E54170020540054824
:0D586800E54870B1054780AD125D9C7F01E1
:015875002210
:0E5AA7008E408F418C428D438B448A45894648
:105AB500E4FDFCC3ED9543EC954250240541E541D9
:105AC500AE407002054014FF125D3BAB44AA45A9E8
:105AD500468D828C83EF124E680DBD00010C80D37C
:015AE500229E
:10595700300555C2057F007E80125D68AD4F125D30
:1059670052AD6E0F125D523008057D010F8006E4BF
:10597700FD7F027E80125D523003047D018002E4C8
:10598700FD7F037E80125D52300A047D018002E4B0
:10599700FD7F047E80125D523007047D018002E4A2
:0959A700FD7F057E80125D522295
:105632007F007E80125D3B8F4FE54FD3941E500654
:10564200E56E940F4006754F19756E057F027E80D8
:10565200125D3BEF600E7F02125D3BEF640160045E
:10566200D208800C7F027E80125D3BEF24FF9208FD
:105672007F037E80125D3BEF600E7F03125D3BEF86
:1056820064016004C203800C7F037E80125D3BEFE5
:1056920024FF92037F047E80125D3BEF600E7F0445
:1056A200125D3BEF64016004C20A800C7F047E80BD
:1056B200125D3BEF24FF920A7F057E80125D3BEF75
:1056C200600E7F05125D3BEF64016004C207800C2F
:0F56D2007F057E80125D3BEF24FF9207D20522F9
:10550500E4F540200903025631C209FF7E82125D8F
:1055150068E4F540E540C3940F5002801CE540C3A4
:10552500941E50028013E540C3942D5002800AE575
:1055350040C3943C4003025625E54075F004A4247D
:1055450000FFE5F03482FEC006C007E54025E025F2
:10555500E024B6F582E43400F583E0FCA3E0FDA386
:10556500E0FEA3E0FFE4FBFAF97801124F63AD0713
:10557500D007D006125D52E54075F004A42401FF62
:10558500E5F03482FEC006C007E54025E025E024AD
:10559500B6F582E43400F583E0FCA3E0FDA3E0FE6C
:1055A500A3E0FFE4FBFA7901F8124F63AD07D007DA
:1055B500D006125D52E54075F004A42402FFE5F023
:1055C5003482FEC006C007E54025E025E024B6F597
:1055D50082E43400F583E0FCA3E0FDA3E0FEA3E054
:1055E500FFE4FB7A01F9F8124F63AD07D007D00647
:1055F500125D52E54075F004A42403FBE5F0348206
:10560500FAE54025E025E024B6F582E43400F5838B
:10561500E0FCA3A3A3E0FFAD07AF03AE02125D520A
:0C5625000540E540C3943C5003025519B9
:015631002256
:105CED007562017563007564B6AB62AA63A9647DC4
:0A5CFD00F07C007F007E82025AA7AF
:080003008F993099FDC299228A
:105C8C008B088A09890AAB08AA09A90A124E226054
:105C9C0013050AE50A7002050914F9124E22FF12C7
:055CAC00000380E2226C
:0B5DA900EF1FAC0670011E4C70F622CC
:105BE900E4FF124E22FE601B74002FF582E434009C
:105BF900F583E06E60037F00220F740129F9E43A0E
:0A5C0900FA80DFE4900000F07F0154
:015C1300226E
:105D0700AF051DEF6013124E22F5993099FDC29928
:0A5D1700740129F9E43AFA80E7224A
:0659B0008B4A8A4B894C72
:1059B600E4F54DF54E7C01ECC39D501AAB4AAA4B5B
:1059C600A94C8C82758300124E3B254EF54EE4356C
:1059D6004DF54D0C80E1C3E4954EF54EE4954DF53D
:1059E6004DAB4AAA4BA94C8C82758300124E68ECCB
:0F59F6007C0029F9EC3AFA900001E54E024E6868
:105C140075407E7541FF754206754303E4F544F50E
:105C2400458F46FB7A0079407D071259B07549EFDC
:0B5C34007B007A0079407D0A025D07CA
:065B580020B22E30062BE6
:105B5E0075407E7541FF754206754306E4F544F5C2
:105B6E00458F46FB7A0079407D071259B07549EF93
:0B5B7E007B007A0079407D0A125D0771
:015B890022F9
:10539C00E550600302547F7F81125AE6900064EF5F
:1053AC00F07F83125AE6A3EFF07F85125AE6A3EF43
:1053BC00F07F87125AE6A3EFF07F89125AE6A3EF2B
:1053CC00F07F8D125AE6A3EFF0900064E0FFC45416
:1053DC000F75F00AA4FEEF540F2E90006BF09000A6
:1053EC0065E0FFC4540F75F00AA4FEEF540F2E9025
:1053FC00006CF0900066E0FFC4540F75F00AA4FE38
:10540C00EF540F2E90006DF0900067E0FFC4540F26
:10541C0075F00AA4FEEF540F2E90006EF090006809
:10542C00E0FFC4540F75F00AA4FEEF540F2E900049
:10543C006FF0900069E0FFC4540F75F00AA4FEEF02
:10544C00540F2E900070F090006BE0D3943B401CF6
:10545C00E4FD7F8E125A2C7D807F80125A2CE4FD45
:10546C007F80125A2C7D807F8E125A2C7D807F8EED
:10547C00025501E4FD7F8E125A2C7D807F80125ADA
:10548C002CE4FF746B2FF582E43400F583E075F0A7
:10549C000A84FE74722FF582E43400F583EEF07406
:1054AC006B2FF582E43400F583E075F00A8474798F
:1054BC002FF582E43400F583E5F0F00FBF07C4E468
:1054CC00FF74722FF582E43400F583E0C454F0FECF
:1054DC0074792FF582E43400F583E02EFE74802F6E
:1054EC00F582E43400F583EEF00FBF07D4125A05B1
:0854FC00A3E0FD7F8C125A2C85
:015504002284
:10002600E4F540E550D3940640030210C2E4FDFC1B
:10003600FF125A63E550B4010E30060B7BFF7A506F
:10004600792C125CD680227BFF7A507931125CD6ED
:10005600D213900070E075F00A8412592ED213E084
:1000660075F00A84E5F012592E7BFF7A5079341226
:100076005CD6E550B4020C3006097A507936125C2B
:10008600D68019D21390006FE075F00A8412592EAB
:10009600D213E075F00A84E5F012592E7BFF7A50F0
:1000A6007934125CD6E550B4030C3006097A5079DF
:1000B60036125CD68019D21390006EE075F00A8471
:1000C60012592ED213E075F00A84E5F012592E7BF0
:1000D600FF7A507936125CD6900070E0FF90006F80
:1000E600E0FD90006EE0FB125BBCEFB407005055DC
:1000F6009000FDF828287302011202011A0201225B
:1001060002012A02013202013A0201427BFF7A50C1
:100116007939802E7BFF7A50793E80267BFF7A5094
:100126007943801E7BFF7A50794880167BFF7A5090
:10013600794D800E7BFF7A50795280067BFF7A508C
:100146007957125CD6E4FDFC7F01125A63E550B480
:10015600040E30060B7BFF7A507936125CD6801976
:10016600D21390006DE075F00A8412592ED213E076
:1001760075F00A84E5F012592E7BFF7A50795C12ED
:100186005CD6E550B4050C3006097A507936125C17
:10019600D68019D21390006CE075F00A8412592E9D
:1001A600D213E075F00A84E5F012592E7BFF7A50DF
:1001B600795C125CD6E550B4060C3006097A5079A3
:1001C60036125CD68019D21390006BE075F00A8463
:1001D60012592ED213E075F00A84E5F012592EE575
:1001E6007270117BFF3006067A50795E800C7A5069
:1001F600796780067BFF7A507970125CD6125A5E58
:100206007BFF200A067A50797980047A5079821227
:100216005CD67BFF3007067A50798B80047A50795A
:1002260094125CD6E4FDFC7F03125A63E5617022EA
:10023600200D1F200A137BFF3002077A50799D029A
:100246001C157A5079AE021C157BFF7A5079BF02D5
:100256001C15E5617003020DEB300D03020DEB304A
:100266000A030207A520070302050A14B40F00407B
:1002760003021C1890028875F003A4C58325F0C5F7
:1002860083730202B50202C80202F302031E0203CE
:100296004902037402039F0203CA0203F502042003
:1002A60002044B0204760204A10204CC0204F77B8A
:1002B600FF3002077A5079D0021C157A5179AF02C5
:1002C6001C15E56EB402137BFF3002077A5079E104
:1002D600021C157A5179AF021C157BFF3002077A92
:1002E6005079D0021C157A5179C0021C15E56EB4FE
:1002F60003137BFF3002077A5079E1021C157A510D
:1003060079C0021C157BFF3002077A5079D0021C97
:10031600157A5179D1021C15E56EB404137BFF30B2
:1003260002077A5079E1021C157A5179D1021C151F
:100336007BFF3002077A5079D0021C157A5179E298
:10034600021C15E56EB405137BFF3002077A50795F
:10035600E1021C157A5179E2021C157BFF30020777
:100366007A5079D0021C157A5179F3021C15E56E84
:10037600B406137BFF3002077A5079E1021C157A26
:100386005179F3021C157BFF3002077A5079D002AF
:100396001C157A527904021C15E56EB407137BFF0F
:1003A6003002077A5079E1021C157A527904021C50
:1003B600157BFF3002077A5079D0021C157A5279E4
:1003C60015021C15E56EB408137BFF3002077A5040
:1003D60079E1021C157A527915021C157BFF300251
:1003E600077A5079D0021C157A527926021C15E537
:1003F6006EB409137BFF3002077A5079E1021C15AF
:100406007A527926021C157BFF3002077A5079D082
:10041600021C157A527937021C15E56EB40A137B55
:10042600FF3002077A5079E1021C157A52793702B9
:100436001C157BFF3002077A5079D0021C157A52C0
:100446007948021C15E56EB40B137BFF3002077A60
:100456005079E1021C157A527948021C157BFF304F
:1004660002077A5079D0021C157A527959021C1566
:10047600E56EB40C137BFF3002077A5079E1021C5B
:10048600157A527959021C157BFF3002077A50798A
:10049600D0021C157A52796A021C15E56EB40D134A
:1004A6007BFF3002077A5079E1021C157A52796A8D
:1004B600021C157BFF3002077A5079D0021C157A90
:1004C60052797B021C15E56EB40E137BFF300207D2
:1004D6007A5079E1021C157A52797B021C157BFF52
:1004E6003002077A5079D0021C157A52798C021C98
:1004F600157BFF3002077A5079E1021C157A527992
:100506008C021C15E56114B40F004003021C189000
:10051600052375F003A4C58325F0C5837302055032
:1005260002056302058E0205B90205E402060F0202
:10053600063A0206650206900206BB0206E60207B6
:100546001102073C0207670207927BFF3002077A17
:100556005079D0021C157A5279AE021C15E56EB49C
:1005660002137BFF3002077A5079E1021C157A529A
:1005760079AE021C157BFF3002077A5079D0021C37
:10058600157A5279BF021C15E56EB403137BFF3052
:1005960002077A5079E1021C157A5279BF021C15BE
:1005A6007BFF3002077A5079D0021C157A5279D037
:1005B600021C15E56EB404137BFF3002077A5079EE
:1005C600E1021C157A5279D0021C157BFF30020716
:1005D6007A5079D0021C157A5279E1021C15E56E23
:1005E600B405137BFF3002077A5079E1021C157AB5
:1005F6005279E1021C157BFF3002077A5079D0024E
:100606001C157A5279F2021C15E56EB406137BFFAF
:100616003002077A5079E1021C157A5279F2021CEF
:10062600157BFF3002077A5079D0021C157A537970
:1006360003021C15E56EB407137BFF3002077A50E0
:1006460079E1021C157A537903021C157BFF3002EF
:10065600077A5079D0021C157A537914021C15E5D5
:100666006EB408137BFF3002077A5079E1021C153D
:100676007A537914021C157BFF3002077A5079D021
:10068600021C157A537925021C15E56EB409137BF5
:10069600FF3002077A5079E1021C157A5379250258
:1006A6001C157BFF3002077A5079D0021C157A534D
:1006B6007936021C15E56EB40A137BFF3002077A01
:1006C6005079E1021C157A537936021C157BFF30EE
:1006D60002077A5079D0021C157A537947021C1505
:1006E600E56EB40B137BFF3002077A5079E1021CEA
:1006F600157A537947021C157BFF3002077A507929
:10070600D0021C157A537958021C15E56EB40C13E9
:100716007BFF3002077A5079E1021C157A5379582B
:10072600021C157BFF3002077A5079D0021C157A1D
:10073600537969021C15E56EB40D137BFF30020771
:100746007A5079E1021C157A537969021C157BFFF0
:100756003002077A5079D0021C157A53797A021C36
:1007660015E56EB40E137BFF3002077A5079E1026D
:100776001C157A53797A021C157BFF3002077A50D2
:1007860079D0021C157A53798B021C157BFF300237
:10079600077A5079E1021C157A53798B021C1530C1
:1007A600B203020DE2200703020A9BE5611414B4AA
:1007B6000F004003021C189007CB75F003A4C583F5
:1007C60025F0C583730207F80208250208520208BD
:1007D6007F0208AC0208D902090602093302096041
:1007E60002098D0209BA0209E7020A14020A410245
:1007F6000A6EE561D3956E50137BFF3002077A507F
:1008060079F2021C157A51799E021C157BFF300283
:10081600077A5079E1021C157A51799E021C15E57A
:1008260061D3956E50137BFF3002077A5079F2023E
:100836001C157A5179AF021C157BFF3002077A50DE
:1008460079E1021C157A5179AF021C15E561D39541
:100856006E50137BFF3002077A5079F2021C157A2C
:100866005179C0021C157BFF3002077A5079E102EC
:100876001C157A5179C0021C15E561D3956E50138B
:100886007BFF3002077A5079F2021C157A5179D132
:10089600021C157BFF3002077A5079E1021C157A9B
:1008A6005179D1021C15E561D3956E50137BFF304B
:1008B60002077A5079F2021C157A5179E2021C1568
:1008C6007BFF3002077A5079E1021C157A5179E2F2
:1008D600021C15E561D3956E50137BFF3002077A33
:1008E6005079F2021C157A5179F3021C157BFF3000
:1008F60002077A5079E1021C157A5179F3021C1528
:10090600E561D3956E50137BFF3002077A5079F27A
:10091600021C157A527904021C157BFF3002077AF5
:100926005079E1021C157A527904021C15E561D34F
:10093600956E50137BFF3002077A5079F2021C1530
:100946007A527915021C157BFF3002077A5079E13D
:10095600021C157A527915021C15E561D3956E5065
:10096600137BFF3002077A5079F2021C157A52790E
:1009760026021C157BFF3002077A5079E1021C150E
:100986007A527926021C15E561D3956E50137BFFCA
:100996003002077A5079F2021C157A527937021C16
:1009A600157BFF3002077A5079E1021C157A5279DD
:1009B60037021C15E561D3956E50137BFF30020795
:1009C6007A5079F2021C157A527948021C157BFF7F
:1009D6003002077A5079E1021C157A527948021CD6
:1009E60015E561D3956E50137BFF3002077A507977
:1009F600F2021C157A527959021C157BFF30020748
:100A06007A5079E1021C157A527959021C15E56172
:100A1600D3956E50137BFF3002077A5079F2021C91
:100A2600157A52796A021C157BFF3002077A5079D3
:100A3600E1021C157A52796A021C15E561D3956E9E
:100A460050137BFF3002077A5079F2021C157A5256
:100A5600797B021C157BFF3002077A5079E1021C74
:100A6600157A52797B021C15E561D3956E50137B7E
:100A7600FF3002077A5079F2021C157A52798C02FD
:100A86001C157BFF3002077A5079E1021C157A5259
:100A9600798C021C15E56E04C3956114B40F0040F1
:100AA60003021C18900AB875F003A4C58325F0C587
:100AB6008373020AE5020B18020B4B020B7E020B34
:100AC600B1020BE4020C17020C4A020C7D020CB0B8
:100AD600020CE3020D16020D49020D7C020DAFE574
:100AE600616401601AE561D3956E50137BFF300295
:100AF600077A5079F2021C157A52799D021C157BF1
:100B0600FF3002077A5079E1021C157A52799D026C
:100B16001C15E5616401601AE561D3956E50137B7F
:100B2600FF3002077A5079F2021C157A5279AE022A
:100B36001C157BFF3002077A5079E1021C157A52A8
:100B460079AE021C15E5616401601AE561D3956E04
:100B560050137BFF3002077A5079F2021C157A5245
:100B660079BF021C157BFF3002077A5079E1021C1F
:100B7600157A5279BF021C15E5616401601AE561B8
:100B8600D3956E50137BFF3002077A5079F2021C20
:100B9600157A5279D0021C157BFF3002077A5079FC
:100BA600E1021C157A5279D0021C15E561640160D8
:100BB6001AE561D3956E50137BFF3002077A5079A0
:100BC600F2021C157A5279E1021C157BFF300207EE
:100BD6007A5079E1021C157A5279E1021C15E56119
:100BE6006401601AE561D3956E50137BFF300207EE
:100BF6007A5079F2021C157A5279F2021C157BFFA3
:100C06003002077A5079E1021C157A5279F2021CF9
:100C160015E5616401601AE561D3956E50137BFF9B
:100C26003002077A5079F2021C157A537903021CB6
:100C3600157BFF3002077A5079E1021C157A537949
:100C460003021C15E5616401601AE561D3956E50D7
:100C5600137BFF3002077A5079F2021C157A53791A
:100C660014021C157BFF3002077A5079E1021C152D
:100C76007A537914021C15E5616401601AE561D3A3
:100C8600956E50137BFF3002077A5079F2021C15DD
:100C96007A537925021C157BFF3002077A5079E1D9
:100CA600021C157A537925021C15E5616401601A48
:100CB600E561D3956E50137BFF3002077A5079F2C7
:100CC600021C157A537936021C157BFF3002077A0F
:100CD6005079E1021C157A537936021C15E56164D8
:100CE60001601AE561D3956E50137BFF3002077AD7
:100CF6005079F2021C157A537947021C157BFF3096
:100D060002077A5079E1021C157A537947021C15BD
:100D1600E5616401601AE561D3956E50137BFF307F
:100D260002077A5079F2021C157A537958021C157B
:100D36007BFF3002077A5079E1021C157A53795805
:100D4600021C15E5616401601AE561D3956E5013C6
:100D56007BFF3002077A5079F2021C157A537969C3
:100D6600021C157BFF3002077A5079E1021C157AC6
:100D7600537969021C15E5616401601AE561D39532
:100D86006E50137BFF3002077A5079F2021C157AF7
:100D960053797A021C157BFF3002077A5079E102FB
:100DA6001C157A53797A021C15E5616401601AE50F
:100DB60061D3956E50137BFF3002077A5079F202A9
:100DC6001C157A53798B021C157BFF3002077A506B
:100DD60079E1021C157A53798B021C157BFF7A5038
:100DE60079BF021C15E5617003021C18200D030271
:100DF6001C18200703020F5F14B40F004003021CE7
:100E060018900E1575F003A4C58325F0C5837302EB
:100E16000E42020E55020E68020E7B020E8E020E66
:100E2600A1020EB4020EC7020EDA020EED020F0088
:100E3600020F13020F26020F39020F4C7BFF3002FE
:100E4600077A5079F2021C157A51799E021C157B9D
:100E5600FF3002077A5079F2021C157A5179AF02F7
:100E66001C157BFF3002077A5079F2021C157A5165
:100E760079C0021C157BFF3002077A5079F2021CFA
:100E8600157A5179D1021C157BFF3002077A507909
:100E9600F2021C157A5179E2021C157BFF3002071B
:100EA6007A5079F2021C157A5179F3021C157BFFF0
:100EB6003002077A5079F2021C157A527904021C24
:100EC600157BFF3002077A5079F2021C157A5279A7
:100ED60015021C157BFF3002077A5079F2021C15A9
:100EE6007A527926021C157BFF3002077A5079F276
:100EF600021C157A527937021C157BFF3002077ADD
:100F06005079F2021C157A527948021C157BFF3083
:100F160002077A5079F2021C157A527959021C1589
:100F26007BFF3002077A5079F2021C157A52796AF1
:100F3600021C157BFF3002077A5079F2021C157AE3
:100F460052797B021C157BFF3002077A5079F20238
:100F56001C157A52798C021C15E56114B40F0040F9
:100F660003021C18900F7875F003A4C58325F0C5FD
:100F76008373020FA5020FB8020FCB020FDE020F1A
:100F8600F102100402101702102A02103D0210503E
:100F960002106302107602108902109C0210AF7BC9
:100FA600FF3002077A5079F2021C157A52799D02B7
:100FB6001C157BFF3002077A5079F2021C157A5213
:100FC60079AE021C157BFF3002077A5079F2021CBB
:100FD600157A5279BF021C157BFF3002077A5079C9
:100FE600F2021C157A5279D0021C157BFF300207DB
:100FF6007A5079F2021C157A5279E1021C157BFFB0
:101006003002077A5079F2021C157A5279F2021CE4
:10101600157BFF3002077A5079F2021C157A537954
:1010260003021C157BFF3002077A5079F2021C1569
:101036007A537914021C157BFF3002077A5079F235
:10104600021C157A537925021C157BFF3002077A9C
:101056005079F2021C157A537936021C157BFF3043
:1010660002077A5079F2021C157A537947021C1549
:101076007BFF3002077A5079F2021C157A537958B1
:10108600021C157BFF3002077A5079F2021C157A92
:10109600537969021C157BFF3002077A5079F202F8
:1010A6001C157A53797A021C157BFF3002077A5099
:1010B60079F2021C157A53798B021C15E550C394FC
:1010C6000A400302119BE4FDFCFF125A637BFF7A80
:1010D600517903125CD6E4FD7F01125A637BFF7AD5
:1010E600517914125CD6E550B4070C3006097A50D3
:1010F6007936125CD6801ED213E56E75F00A8475B9
:10110600F00A84E5F012592ED213E56E75F00A84C2
:10111600E5F012592E7BFF7A50792C125CD6125AC2
:101126005E7BFF7A51791F125CD6E550B4080C300D
:1011360006097A507936125CD6801ED213E54F75B1
:10114600F00A8475F00A84E5F012592ED213E54FA1
:1011560075F00A84E5F012592E7BFF7A50792C122D
:101166005CD6E4FDFC7F03125A637BFF7A51792A31
:10117600125CD6E550B4090A3006077A5179350271
:101186001C157BFF3008077A51793D021C157A51F0
:101196007944021C15E550C3940B4003021368E41E
:1011A600FDFCFF125A637BFF7A517903125CD6E489
:1011B600FD7F01125A637BFF7A51794B125CD6E4AC
:1011C600FD7F02125A637BFF7A51795C125CD6D29C
:1011D600137B007AE179F57805AF59AE58AD57AC77
:1011E60056125921D2137B807A9679987800AF5996
:1011F600AE58AD57AC56125921D2137B407A42797C
:101206000F7800AF59AE58AD57AC56125921125C43
:10121600D0D2137BA07A8679017800AF59AE58AD4B
:1012260057AC56125921D213E47B107A27F9F8AF3E
:1012360059AE58AD57AC56125921D213E47BE87A11
:1012460003F9F8AF59AE58AD57AC56125921D2131F
:10125600E47B64FAF9F8AF59AE58AD57AC5612595B
:1012660021D213E47B0AFAF9F8AF59AE58AD57AC60
:1012760056125921D213E47B0AFAF9F8AF59AE583F
:10128600AD57AC5612592A7BFF7A517964125CD657
:10129600E4FDFC7F03125A637BFF7A517966125C88
:1012A600D6D2137B007AE179F57805AF55AE54AD09
:1012B60053AC52125921D2137B807A9679987800D2
:1012C600AF55AE54AD53AC52125921D2137B407A6E
:1012D60042790F7800AF55AE54AD53AC5212592136
:1012E600125CD0D2137BA07A8679017800AF55AE16
:1012F60054AD53AC52125921D213E47B107A27F91C
:10130600F8AF55AE54AD53AC52125921D213E47B0B
:10131600E87A03F9F8AF55AE54AD53AC52125921E1
:10132600D213E47B64FAF9F8AF55AE54AD53AC5220
:10133600125921D213E47B0AFAF9F8AF55AE54AD2F
:1013460053AC52125921D213E47B0AFAF9F8AF557D
:10135600AE54AD53AC5212592A7BFF7A51796402CE
:101366001C15E550C3940B5003021741E55024F5B4
:10137600C3956E4003021741755B01E4FDFCFF1245
:101386005A637BFF7A51796C125CD6E55024F6D30A
:101396009409401CD213E55024F6FFE434FFFE7D89
:1013A6000A124E9CEF75F00A84E5F012592E800958
:1013B6007BFF7A517964125CD6D213E55024F6FF8E
:1013C600E434FFFE7C007D0A124E9CED12592E7B02
:1013D600FF7A50792C125CD6E4FDFC7F01125A6329
:1013E600E55024F614B40F0040030214A79014012C
:1013F60075F003A4C58325F0C5837302142E021469
:101406003602143E02144602144E02145602145EAC
:1014160002146602146E02147602147E0214860208
:10142600148E02149602149E7BFF7A51799E806E6A
:101436007BFF7A5179AF80667BFF7A5179C0805EF7
:101446007BFF7A5179D180567BFF7A5179E2804EC3
:101456007BFF7A5179F380467BFF7A527904803E8E
:101466007BFF7A52791580367BFF7A527926802E59
:101476007BFF7A52793780267BFF7A527948801E25
:101486007BFF7A52795980167BFF7A52796A800EF1
:101496007BFF7A52797B80067BFF7A52798C125CCD
:1014A600D6125A5E7BFF7A51795C125CD6D213E56E
:1014B6005025E025E0243EF582E43401F583E0FC86
:1014C600A3E0FDA3E0FEA3E0FF7B007AE179F578D7
:1014D60005125921D213E55025E025E0243EF58278
:1014E600E4340112590CD213E55025E025E0243EE0
:1014F600F582E43401F5837B407A42790F12591460
:10150600125CD0D213E55025E025E0243EF582E4B6
:101516003401F583E0FCA3E0FDA3E0FEA3E0FF7B3E
:10152600A07A86790112591FD213E55025E025E0ED
:10153600243EF582E43401F583E0FCA3E0FDA3E05C
:10154600FEA3E0FFE47B107A27F9F8125921D213A3
:10155600E55025E025E0243EF582E43401F583E0FC
:10156600FCA3E0FDA3E0FEA3E0FFE47BE87A03F939
:10157600F8125921D213E55025E025E0243EF582E4
:10158600E43401F583E0FCA3E0FDA3E0FEA3E0FF65
:10159600E47B64FAF9F8125921D213E55025E025C7
:1015A600E0243EF582E43401F583E0FCA3E0FDA3EC
:1015B600E0FEA3E0FFE47B0AFAF9F8125921D21300
:1015C600E55025E025E0243EF582E43401F583E08C
:1015D600FCA3E0FDA3E0FEA3E0FF1259247BFF7A03
:1015E600517964125CD6E4FDFC7F03125A637BFFDB
:1015F6007A517966125CD6D213E55025E025E024AF
:1016060002F582E43401F583E0FCA3E0FDA3E0FEED
:10161600A3E0FF7B007AE179F57805125921D21310
:10162600E55025E025E02402F582E4340112590C48
:10163600D213E55025E025E02402F582E43401F5D5
:1016460083E0FCA3E0FDA3E0FEA3E0FF7B407A423B
:10165600790F12591F125CD0D213E55025E025E010
:101666002402F582E43401F583E0FCA3E0FDA3E067
:10167600FEA3E0FF7BA07A86790112591FD213E5FB
:101686005025E025E02402F582E43401F583E0FCF0
:10169600A3E0FDA3E0FEA3E0FFE47B107A27F9F8C0
:1016A600125921D213E55025E025E02402F582E403
:1016B6003401F583E0FCA3E0FDA3E0FEA3E0FFE434
:1016C6007BE87A03F9F8125921D213E55025E02573
:1016D600E02402F582E43401F583E0FCA3E0FDA3F7
:1016E600E0FEA3E0FFE47B64FAF9F8125921D21375
:1016F600E55025E025E02402F582E43401F583E097
:10170600FCA3E0FDA3E0FEA3E0FFE47B0AFAF9F800
:10171600125921D213E55025E025E02402F582E492
:101726003401F583E0FCA3E0FDA3E0FEA3E0FF1295
:1017360059247BFF7A517964021C15E550C3940B3A
:101746005003021C18E56E75F002A4FFE55024F55F
:10175600FDE434FFFCC3ED9FE5F06480F8EC6480A3
:10176600984003021C18755B01E4FDFCFF125A63E6
:101776007BFF7A517977125CD6E55024F6C3956ED5
:10178600D394094024D213E55024F6FFE434FFFE37
:10179600C3EF956EFFEE9CFE7D0A124E9CEF75F030
:1017A6000A84E5F012592E80097BFF7A517964127A
:1017B6005CD6D213E55024F6FFE434FFFEC3EF9562
:1017C6006EFFEE9400FE7C007D0A124E9CED1259CF
:1017D6002E7BFF7A50792C125CD6E4FDFC7F011239
:1017E6005A63E55024F6C3956E14B40F0040030205
:1017F60018AC90180675F003A4C58325F0C583734D
:1018060002183302183B02184302184B02185302FF
:10181600185B02186302186B02187302187B021811
:101826008302188B02189302189B0218A37BFF7A77
:1018360052799D806E7BFF7A5279AE80667BFF7A05
:101846005279BF805E7BFF7A5279D080567BFF7AD1
:101856005279E1804E7BFF7A5279F280467BFF7A9D
:10186600537903803E7BFF7A53791480367BFF7A67
:10187600537925802E7BFF7A53793680267BFF7A33
:10188600537947801E7BFF7A53795880167BFF7AFF
:10189600537969800E7BFF7A53797A80067BFF7ACB
:1018A60053798B125CD6125A5E7BFF7A51795C12A1
:1018B6005CD6D213C3E550956EFFEC9400FE900003
:1018C600C675F004EF125020EE25E025E02583F5DD
:1018D60083E0FCA3E0FDA3E0FEA3E0FF7B007AE14A
:1018E60079F578051259211258EFD213C3E55095B0
:1018F6006EFFE49400FE9000C675F004EF125020CF
:10190600EE25E025E02583F583E0FCA3E0FDA3E0DA
:10191600FEA3E0FF7B407A42790F12591F125CD07A
:10192600D213C3E550956EFFE49400FE9000C67591
:10193600F004EF125020EE25E025E02583F583E044
:10194600FCA3E0FDA3E0FEA3E0FF7BA07A8679017D
:1019560012591FD213C3E550956EFFE49400FE9012
:1019660000C675F004EF125020EE25E025E0258331
:10197600F583E0FCA3E0FDA3E0FEA3E0FFE47B101B
:101986007A27F9F8125921D213C3E550956EFFE470
:101996009400FE9000C675F004EF125020EE25E08C
:1019A60025E02583F583E0FCA3E0FDA3E0FEA3E0AC
:1019B600FFE47BE87A03F9F8125921D213C3E55004
:1019C600956EFFE49400FE9000C675F004EF125089
:1019D60020EE25E025E02583F583E0FCA3E0FDA3CA
:1019E600E0FEA3E0FFE47B64FAF9F8125921D21372
:1019F600C3E550956EFFE49400FE9000C675F004B2
:101A0600EF125020EE25E025E02583F583E0FCA3C8
:101A1600E0FDA3E0FEA3E0FFE47B0AFAF9F8125921
:101A260021D213C3E550956EFFE49400FE9000C6E4
:101A360075F004EF125020EE25E025E02583F583AE
:101A4600E0FCA3E0FDA3E0FEA3E0FF1259247BFF28
:101A56007A517964125CD6E4FDFC7F03125A637BEB
:101A6600FF7A517966125CD6D213C3E550956EFFA4
:101A7600EC9400FE90008A75F004EF125020EE25DB
:101A8600E025E02583F583E0FCA3E0FDA3E0FEA3CB
:101A9600E0FF7B007AE179F57805125921D213909F
:101AA600008A1258F4D213C3E550956EFFE49400F1
:101AB600FE90008A75F004EF125020EE25E025E036
:101AC6002583F583E0FCA3E0FDA3E0FEA3E0FF7B16
:101AD600407A42790F12591F125CD0D213C3E550D7
:101AE600956EFFE49400FE90008A75F004EF1250A4
:101AF60020EE25E025E02583F583E0FCA3E0FDA3A9
:101B0600E0FEA3E0FF7BA07A86790112591FD2136B
:101B1600C3E550956EFFE49400FE90008A75F004CC
:101B2600EF125020EE25E025E02583F583E0FCA3A7
:101B3600E0FDA3E0FEA3E0FFE47B107A27F9F812AC
:101B46005921D213C3E550956EFFE49400FE900030
:101B56008A75F004EF125020EE25E025E02583F586
:101B660083E0FCA3E0FDA3E0FEA3E0FFE47BE87ACC
:101B760003F9F8125921D213C3E550956EFFE49488
:101B860000FE90008A75F004EF125020EE25E02545
:101B9600E02583F583E0FCA3E0FDA3E0FEA3E0FFE0
:101BA600E47B64FAF9F8125921D213C3E550956E15
:101BB600FFE49400FE90008A75F004EF125020EEC8
:101BC60025E025E02583F583E0FCA3E0FDA3E0FE08
:101BD600A3E0FFE47B0AFAF9F8125921D213C3E510
:101BE60050956EFFE49400FE90008A75F004EF12A3
:101BF6005020EE25E025E02583F583E0FCA3E0FDFB
:101C0600A3E0FEA3E0FF1259247BFF7A5179641208
:021C16005CD69A
:011C180022A9
:10368200209029300B28C20BE56E75F002A4240BA2
:10369200FDE435F0FCE5502401FFE433FE124E9CBC
:1036A2008D50E550B407077550088002D20B309157
:1036B200030239BC200C03023835C20CE550B401B8
:1036C2000A900070E075F0630237CDE550B4020A4B
:1036D20090006FE075F00C0237CDE5506403600393
:1036E2000237D490006FE0FFB403047E0180027EB3
:1036F20000EFB401047F0180027F00EF4EFF9000D3
:103702006FE0FEB405047D0180027D00ED4FFFEE07
:10371200B407047E0180027E00EE4FFF90006FE04E
:10372200FEB408047D0180027D00ED4FFFEEB40A75
:10373200047E0180027E00EE4FFF90006FE0FEB437
:103742000C047D0180027D00ED4F600990006EE067
:1037520075F01F8076EEB406047F0180027F009030
:10376200006FE0FEB403047D0180027D00ED4FFF97
:10377200EEB409047E0180027E00EE4FFF90006FDE
:10378200E0B40B047E0180027E00EE4F60099000DF
:103792006EE075F01E8034900070E0FF54037009F3
:1037A200EF75F06484E5F07012900070E0FF7E0027
:1037B2007C017D90124E9CED4C700990006EE0757C
:1037C200F01D800790006EE075F01C84E5F004F0B7
:1037D2008061E550B4041090006DE02401FFE433F1
:1037E200FE7C007D188028E550B4051090006CE046
:1037F2002401FFE433FE7C007D3C8013E550B406D7
:103802001590006BE02401FFE433FE7C007D3C1246
:103812004E9CEDF0801DE55064076017E550B4083A
:103822000BE54FC3941E500B054F8007E550B409BA
:1038320002D208E55A60030239C8E550B4010A9081
:103842000070E075F06302394BE550B4020A900053
:103852006FE075F00C02394BE550640360030239E6
:103862005290006FE0FFB403047E0180027E00EFFD
:10387200B401047F0180027F00EF4EFF90006FE0F1
:10388200FEB405047D0180027D00ED4FFFEEB4071A
:10389200047E0180027E00EE4FFF90006FE0FEB4D6
:1038A20008047D0180027D00ED4FFFEEB40A047E24
:1038B2000180027E00EE4FFF90006FE0FEB40C0428
:1038C2007D0180027D00ED4F600990006EE075F091
:1038D2001F8076EEB406047F0180027F0090006FA5
:1038E200E0FEB403047D0180027D00ED4FFFEEB4E3
:1038F20009047E0180027E00EE4FFF90006FE0B46B
:103902000B047E0180027E00EE4F600990006EE0A3
:1039120075F01E8034900070E0FF54037009EF755B
:10392200F06484E5F07012900070E0FF7E007C018C
:103932007D90124E9CED4C700990006EE075F01D6A
:10394200800790006EE075F01C84E5F004F080764C
:10395200E550B4041090006DE02401FFE433FE7CD6
:10396200007D188028E550B4051090006CE0240119
:10397200FFE433FE7C007D3C8013E550B4061590D5
:10398200006BE02401FFE433FE7C007D3C124E9C80
:10399200EDF08032E5506407602CE550B4080BE589
:1039A2004FC3941E5020054F801CE550B40904D229
:1039B200088013E550B40A0E800C200C06D20CD2FB
:1039C20005D204755A02309203023AE9200E03022C
:1039D2003A56C20EE550B4010B900070E0D3940049
:1039E2004072804EE550B4020B90006FE0D3940118
:1039F2004062803EE550B4030B90006EE0D3940128
:103A02004052802EE550B4040B90006DE0D3940038
:103A12004042801EE550B4050B90006CE0D3940048
:103A22004032800EE550B4060E90006BE0D3940055
:103A32004022E014F0801DE55064076017E550B4A1
:103A4200080BE54FD39400400B154F8007E550B4A7
:103A52000902C208E5716003023AF5E550B4010EAD
:103A6200900070E0D394005003023AF5804EE55086
:103A7200B4020B90006FE0D394014077803EE55092
:103A8200B4030B90006EE0D394014067802EE550A2
:103A9200B4040B90006DE0D394004057801EE550B3
:103AA200B4050B90006CE0D394004047800EE550C3
:103AB200B4060E90006BE0D394004037E014F0801F
:103AC20032E5506407602CE550B4080BE54FD394FF
:103AD200004020154F801CE550B40904C208801331
:103AE200E550B40A0E800C200E06D20ED205D20486
:103AF200757102209311300F10C20FE550700AB297
:103B02000AD207D2058002D20F20941A30101EC2A8
:103B120010E5507018B207300A13300704F56180BF
:103B22000C7561078007201004D210D2052095562B
:103B3200301155E5507051C211300A4CC20D300798
:103B420024E56E2401FFE433FEC3E5619FEE648049
:103B5200F874809850028025C207E56E04FF125C5B
:103B62001415618023E561D39401400F1561E56E60
:103B7200049561256EFF125C14800DD207AF6112AD
:103B82005C1405618002D211309603024261E55B4A
:103B92007003024261E550C3940B5003023E6BE591
:103BA2005024F5C3956E4003023E6BAF59AE58AD3B
:103BB20057AC56E55025E025E0243EF582E4340179
:103BC200F583125014AF55AE54AD53AC52E55025A7
:103BD200E025E02402F582E43401125A597BFF7A8F
:103BE20051795C125CD6D213E55025E025E0243EE3
:103BF200F582E43401F583E0FCA3E0FDA3E0FEA33B
:103C0200E0FF7B007AE179F57805125921D213E5BC
:103C12005025E025E0243EF582E4340112590CD20D
:103C220013E55025E025E0243EF582E43401F583D6
:103C3200E0FCA3E0FDA3E0FEA3E0FF7B407A427933
:103C42000F12591F125CD0D213E55025E025E02453
:103C52003EF582E43401F583E0FCA3E0FDA3E0FE3F
:103C6200A3E0FF7BA07A86790112591FD213E55097
:103C720025E025E0243EF582E43401F583E0FCA34F
:103C8200E0FDA3E0FEA3E0FFE47B107A27F9F8123F
:103C92005921D213E55025E025E0243EF582E43493
:103CA20001F583E0FCA3E0FDA3E0FEA3E0FFE47BDB
:103CB200E87A03F9F8125921D213E55025E025E0FC
:103CC200243EF582E43401F583E0FCA3E0FDA3E0A9
:103CD200FEA3E0FFE47B64FAF9F8125921D213E55E
:103CE2005025E025E0243EF582E43401F583E0FC32
:103CF200A3E0FDA3E0FEA3E0FFE47B0AFAF9F812D9
:103D02005921D213E55025E025E0243EF582E43422
:103D120001F583E0FCA3E0FDA3E0FEA3E0FF12595E
:103D2200247BFF7A517964125CD6E4FDFC7F031296
:103D32005A637BFF7A517966125CD6D213E550251D
:103D4200E025E02402F582E43401F583E0FCA3E0FF
:103D5200FDA3E0FEA3E0FF7B007AE179F57805128E
:103D62005921D213E55025E025E02402F582E434FE
:103D72000112590CD213E55025E025E02402F58208
:103D8200E43401F583E0FCA3E0FDA3E0FEA3E0FF41
:103D92007B407A42790F12591F125CD0D213E55040
:103DA20025E025E02402F582E43401F583E0FCA35A
:103DB200E0FDA3E0FEA3E0FF7BA07A867901125921
:103DC2001FD213E55025E025E02402F582E43401F8
:103DD200F583E0FCA3E0FDA3E0FEA3E0FFE47B109B
:103DE2007A27F9F8125921D213E55025E025E0246B
:103DF20002F582E43401F583E0FCA3E0FDA3E0FEDA
:103E0200A3E0FFE47BE87A03F9F8125921D213E523
:103E12005025E025E02402F582E43401F583E0FC3C
:103E2200A3E0FDA3E0FEA3E0FFE47B64FAF9F8124D
:103E32005921D213E55025E025E02402F582E4342D
:103E420001F583E0FCA3E0FDA3E0FEA3E0FFE47B39
:103E52000AFAF9F8125921D213E55025E025E02497
:103E620002F582E43401024234E550C3940B50035C
:103E720002424DE56E75F002A4FFE55024F5FDE423
:103E820034FFFCC3ED9FE5F06480F8EC6480984059
:103E92000302424DAF55AE54AD53AC52E550C395FB
:103EA2006EFBE49400FA90008A75F004EB12502045
:103EB200EA25E025E02583F583125014AF59AE5868
:103EC200AD57AC569000C675F004EB125020EA25AF
:103ED200E025E02583125A597BFF7A51795C125C06
:103EE200D6D213C3E550956EFFEC9400FE9000C647
:103EF20075F004EF125020EE25E025E02583F583CE
:103F0200E0FCA3E0FDA3E0FEA3E0FF7B007AE17901
:103F1200F578051259211258EFD213C3E550956E68
:103F2200FFE49400FE9000C675F004EF125020EEFC
:103F320025E025E02583F583E0FCA3E0FDA3E0FE78
:103F4200A3E0FF7B407A42790F12591F125CD0D254
:103F520013C3E550956EFFE49400FE9000C675F021
:103F620004EF125020EE25E025E02583F583E0FCE6
:103F7200A3E0FDA3E0FEA3E0FF7BA07A8679011215
:103F8200591FD213C3E550956EFFE49400FE9000D2
:103F9200C675F004EF125020EE25E025E02583F5EA
:103FA20083E0FCA3E0FDA3E0FEA3E0FFE47B107A44
:103FB20027F9F8125921D213C3E550956EFFE49404
:103FC20000FE9000C675F004EF125020EE25E025A9
:103FD200E02583F583E0FCA3E0FDA3E0FEA3E0FF80
:103FE200E47BE87A03F9F8125921D213C3E550951C
:103FF2006EFFE49400FE9000C675F004EF125020AC
:10400200EE25E025E02583F583E0FCA3E0FDA3E0B7
:10401200FEA3E0FFE47B64FAF9F8125921D213C33C
:10402200E550956EFFE49400FE9000C675F004EF33
:10403200125020EE25E025E02583F583E0FCA3E085
:10404200FDA3E0FEA3E0FFE47B0AFAF9F81259218E
:10405200D213C3E550956EFFE49400FE9000C6753E
:10406200F004EF125020EE25E025E02583F583E0F1
:10407200FCA3E0FDA3E0FEA3E0FF1259247BFF7A3C
:10408200517964125CD6E4FDFC7F03125A637BFF14
:104092007A517966125CD6D213C3E550956EFFEC65
:1040A2009400FE90008A75F004EF125020EE25E095
:1040B20025E02583F583E0FCA3E0FDA3E0FEA3E079
:1040C200FF7B007AE179F57805125921D213C3E515
:1040D20050956EFFE49400FE90008A1258FED213AF
:1040E200C3E550956EFFE49400FE90008A75F004DB
:1040F200EF125020EE25E025E02583F583E0FCA3B6
:10410200E0FDA3E0FEA3E0FF7B407A42790F125963
:104112001F125CD0D213C3E550956EFFE49400FEEB
:1041220090008A75F004EF125020EE25E025E0257C
:1041320083F583E0FCA3E0FDA3E0FEA3E0FF7BA008
:104142007A86790112591FD213C3E550956EFFE4A6
:104152009400FE90008A75F004EF125020EE25E0E4
:1041620025E02583F583E0FCA3E0FDA3E0FEA3E0C8
:10417200FFE47B107A27F9F8125921D213C3E550D4
:10418200956EFFE49400FE90008A75F004EF1250E1
:1041920020EE25E025E02583F583E0FCA3E0FDA3E6
:1041A200E0FEA3E0FFE47BE87A03F9F8125921D29A
:1041B20013C3E550956EFFE49400FE90008A75F0FB
:1041C20004EF125020EE25E025E02583F583E0FC84
:1041D200A3E0FDA3E0FEA3E0FFE47B64FAF9F8129A
:1041E2005921D213C3E550956EFFE49400FE90006E
:1041F2008A75F004EF125020EE25E025E02583F5C4
:1042020083E0FCA3E0FDA3E0FEA3E0FFE47B0AFA67
:10421200F9F8125921D213C3E550956EFFE49400C8
:10422200FE90008A75F004EF125020EE25E025E0A2
:104232002583F583E0FCA3E0FDA3E0FEA3E0FF12EB
:1042420059247BFF7A517964125CD6AB62AA63A9C6
:10425200647DF07C007F007E821257FA3096FD204A
:10426200970B30010AC201E4F550F55B22D201221C
:105CB100758921758DFD758BFDE4F58A758C4C75A3
:0F5CC1009850F587D2AFD2ACD28ED2A9D28C2216
:105D2100300A06C2B4D2B58004D2B4C2B530070578
:0A5D3100C2B6D2B722D2B6C2B72222
:101C1900300A03023681E4FCFD90012EE0F8A3E0CE
:101C2900F9A3E0FAA3E02566FFEA3565FEED39FD83
:101C3900EC38FCAB55AA54A953A852D3125003400F
:101C490003021CDBAE65AF66AB07AA0690012EE066
:101C5900FCA3E0FDA3E0FEA3E0C39BFFEE9AFEED2B
:101C69009400FDEC9400FCAB55AA54A852C3125041
:101C790003405FE4FCFD90016AE0F8A3E0F9A3E00A
:101C8900FAA3E02570FFEA356FFEED39FDEC38FC6B
:101C9900AB59AA58A957A856D31250035034AE6F5E
:101CA900AF70AB07AA0690016AE0FCA3E0FDA3E0D0
:101CB900FEA3E0C39BFFEE9AFEED9400FDEC9400B9
:101CC900FCAB59AA58A856C31250034005D20702C3
:101CD9001D94E4FCFD9000B6E0F8A3E0F9A3E0FA56
:101CE900A3E02566FFEA3565FEED39FDEC38FCAB6E
:101CF90055AA54A953A852D31250034003021D9464
:101D0900AE65AF66AB07AA069000B6E0FCA3E0FD9E
:101D1900A3E0FEA3E0C39BFFEE9AFEED9400FDEC69
:101D29009400FCAB55AA54A852C3125003405CE47A
:101D3900FCFD9000F2E0F8A3E0F9A3E0FAA3E025A6
:101D490070FFEA356FFEED39FDEC38FCAB59AA5846
:101D5900A957A856D31250035031AE6FAF70AB07D5
:101D6900AA069000F2E0FCA3E0FDA3E0FEA3E0C315
:101D79009BFFEE9AFEED9400FDEC9400FCAB59AA92
:101D890058A856C31250034002C20720070302296C
:101D9900D8E4FCFD90012EE0F8A3E0F9A3E0FAA352
:101DA900E02566FFEA3565FEED39FDEC38FCAB55FB
:101DB900AA54A953A852D31250034003021E62AE7B
:101DC90065AF66AB07AA0690012EE0FCA3E0FDA370
:101DD900E0FEA3E0C39BFFEE9AFEED9400FDEC94B8
:101DE90000FCAB55AA54A852C3125003406BE4FC43
:101DF900FD90016AE0F8A3E0F9A3E0FAA3E02570F9
:101E0900FFEA356FFEED39FDEC38FCAB59AA58A94C
:101E190057A856D31250035040AE6FAF70AB07AA04
:101E29000690016AE0FCA3E0FDA3E0FEA3E0C39BEA
:101E3900FFEE9AFEED9400FDEC9400FCAB59AA5814
:101E4900A856C31250034011756101D20DE55165C1
:101E59006170030236810229CDE4FCFD900132E074
:101E6900F8A3E0F9A3E0FAA3E02566FFEA3565FEE9
:101E7900ED39FDEC38FCAB55AA54A953A852C3124D
:101E890050034003021F33AE65AF66AB07AA069045
:101E99000132E0FCA3E0FDA3E0FEA3E0C39BFFEE5B
:101EA9009AFEED9400FDEC9400FCAB55AA54A8529F
:101EB900D31250034074E4FCFD90016EE0F8A3E0F6
:101EC900F9A3E0FAA3E02570FFEA356FFEED39FDCD
:101ED900EC38FCAB59AA58A957A856C3125003505D
:101EE90049AE6FAF70AB07AA0690016EE0FCA3E0A4
:101EF900FDA3E0FEA3E0C39BFFEE9AFEED9400FD77
:101F0900EC9400FCAB59AA58A856D3125003401AB6
:101F1900756102D20DE55165617003023681E551A3
:101F2900656170030236810229CDE4FCFD9001361A
:101F3900E0F8A3E0F9A3E0FAA3E02566FFEA356536
:101F4900FEED39FDEC38FCAB55AA54A953A852C390
:101F59001250034003022004AE65AF66AB07AA0620
:101F6900900136E0FCA3E0FDA3E0FEA3E0C39BFFE4
:101F7900EE9AFEED9400FDEC9400FCAB55AA54A832
:101F890052D31250034074E4FCFD900172E0F8A3AF
:101F9900E0F9A3E0FAA3E02570FFEA356FFEED3919
:101FA900FDEC38FCAB59AA58A957A856C3125003DF
:101FB9005049AE6FAF70AB07AA06900172E0FCA35F
:101FC900E0FDA3E0FEA3E0C39BFFEE9AFEED9400C3
:101FD900FDEC9400FCAB59AA58A856D31250034003
:101FE9001A756103D20DE55165617003023681E509
:101FF90051656170030236810229CDE4FCFD90012F
:102009003AE0F8A3E0F9A3E0FAA3E02566FFEA3590
:1020190065FEED39FDEC38FCAB55AA54A953A8521D
:10202900C312500340030220D5AE65AF66AB07AAC1
:102039000690013AE0FCA3E0FDA3E0FEA3E0C39B08
:10204900FFEE9AFEED9400FDEC9400FCAB55AA540A
:10205900A852D31250034074E4FCFD900176E0F8D5
:10206900A3E0F9A3E0FAA3E02570FFEA356FFEEDDE
:1020790039FDEC38FCAB59AA58A957A856C31250D8
:10208900035049AE6FAF70AB07AA06900176E0FC2A
:10209900A3E0FDA3E0FEA3E0C39BFFEE9AFEED944F
:1020A90000FDEC9400FCAB59AA58A856D312500372
:1020B900401A756104D20DE55165617003023681DC
:1020C900E551656170030236810229CDE4FCFD907A
:1020D900013EE0F8A3E0F9A3E0FAA3E02566FFEAF0
:1020E9003565FEED39FDEC38FCAB55AA54A953A86A
:1020F90052C312500340030221A6AE65AF66AB0777
:10210900AA0690013EE0FCA3E0FDA3E0FEA3E0C324
:102119009BFFEE9AFEED9400FDEC9400FCAB55AAF2
:1021290054A852D31250034074E4FCFD90017AE0A4
:10213900F8A3E0F9A3E0FAA3E02570FFEA356FFE02
:10214900ED39FDEC38FCAB59AA58A957A856C3126A
:1021590050035049AE6FAF70AB07AA0690017AE001
:10216900FCA3E0FDA3E0FEA3E0C39BFFEE9AFEED16
:102179009400FDEC9400FCAB59AA58A856D3125010
:1021890003401A756105D20DE55165617003023688
:1021990081E551656170030236810229CDE4FCFDB8
:1021A900900142E0F8A3E0F9A3E0FAA3E02566FF75
:1021B900EA3565FEED39FDEC38FCAB55AA54A95357
:1021C900A852C31250034003022277AE65AF66AB33
:1021D90007AA06900142E0FCA3E0FDA3E0FEA3E00C
:1021E900C39BFFEE9AFEED9400FDEC9400FCAB5509
:1021F900AA54A852D31250034074E4FCFD90017E06
:10220900E0F8A3E0F9A3E0FAA3E02570FFEA356F4F
:10221900FEED39FDEC38FCAB59AA58A957A856C3AD
:102229001250035049AE6FAF70AB07AA0690017EFA
:10223900E0FCA3E0FDA3E0FEA3E0C39BFFEE9AFE52
:10224900ED9400FDEC9400FCAB59AA58A856D312A2
:102259005003401A756106D20DE55165617003029C
:102269003681E551656170030236810229CDE4FCAE
:10227900FD900146E0F8A3E0F9A3E0FAA3E02566A2
:10228900FFEA3565FEED39FDEC38FCAB55AA54A9DA
:1022990053A852C31250034003022348AE65AF66E8
:1022A900AB07AA06900146E0FCA3E0FDA3E0FEA36C
:1022B900E0C39BFFEE9AFEED9400FDEC9400FCABAD
:1022C90055AA54A852D31250034074E4FCFD90015E
:1022D90082E0F8A3E0F9A3E0FAA3E02570FFEA356C
:1022E9006FFEED39FDEC38FCAB59AA58A957A85631
:1022F900C31250035049AE6FAF70AB07AA069001E5
:1023090082E0FCA3E0FDA3E0FEA3E0C39BFFEE9AFD
:10231900FEED9400FDEC9400FCAB59AA58A856D3E5
:10232900125003401A756107D20DE55165617003BA
:10233900023681E551656170030236810229CDE4D7
:10234900FCFD90014AE0F8A3E0F9A3E0FAA3E02537
:1023590066FFEA3565FEED39FDEC38FCAB55AA544C
:10236900A953A852C31250034003022419AE65AF02
:1023790066AB07AA0690014AE0FCA3E0FDA3E0FED4
:10238900A3E0C39BFFEE9AFEED9400FDEC9400FCE4
:10239900AB55AA54A852D31250034074E4FCFD90E3
:1023A9000186E0F8A3E0F9A3E0FAA3E02570FFEACB
:1023B900356FFEED39FDEC38FCAB59AA58A957A881
:1023C90056C31250035049AE6FAF70AB07AA0690BF
:1023D9000186E0FCA3E0FDA3E0FEA3E0C39BFFEEC2
:1023E9009AFEED9400FDEC9400FCAB59AA58A8564E
:1023F900D3125003401A756108D20DE55165617019
:1024090003023681E551656170030236810229CDE7
:10241900E4FCFD90014EE0F8A3E0F9A3E0FAA3E0A3
:102429002566FFEA3565FEED39FDEC38FCAB55AAAA
:1024390054A953A852C312500340030224EAAE65BB
:10244900AF66AB07AA0690014EE0FCA3E0FDA3E04E
:10245900FEA3E0C39BFFEE9AFEED9400FDEC940011
:10246900FCAB55AA54A852D31250034074E4FCFDA6
:1024790090018AE0F8A3E0F9A3E0FAA3E02570FF50
:10248900EA356FFEED39FDEC38FCAB59AA58A9576E
:10249900A856C31250035049AE6FAF70AB07AA06D6
:1024A90090018AE0FCA3E0FDA3E0FEA3E0C39BFF4B
:1024B900EE9AFEED9400FDEC9400FCAB59AA58A8E5
:1024C90056D3125003401A756109D20DE551656161
:1024D9007003023681E55165617003023681022974
:1024E900CDE4FCFD900152E0F8A3E0F9A3E0FAA3E2
:1024F900E02566FFEA3565FEED39FDEC38FCAB55A4
:10250900AA54A953A852C312500340030225BBAED3
:1025190065AF66AB07AA06900152E0FCA3E0FDA3F4
:10252900E0FEA3E0C39BFFEE9AFEED9400FDEC9460
:1025390000FCAB55AA54A852D31250034074E4FCD2
:10254900FD90018EE0F8A3E0F9A3E0FAA3E025707D
:10255900FFEA356FFEED39FDEC38FCAB59AA58A9F5
:1025690057A856C31250035049AE6FAF70AB07AAB4
:102579000690018EE0FCA3E0FDA3E0FEA3E0C39B6F
:10258900FFEE9AFEED9400FDEC9400FCAB59AA58BD
:10259900A856D3125003401A75610AD20DE5516548
:1025A900617003023681E55165617003023681026B
:1025B90029CDE4FCFD900156E0F8A3E0F9A3E0FA87
:1025C900A3E02566FFEA3565FEED39FDEC38FCAB85
:1025D90055AA54A953A852C3125003400302268C8A
:1025E900AE65AF66AB07AA06900156E0FCA3E0FD15
:1025F900A3E0FEA3E0C39BFFEE9AFEED9400FDEC81
:102609009400FCAB55AA54A852D31250034074E469
:10261900FCFD900192E0F8A3E0F9A3E0FAA3E0251C
:1026290070FFEA356FFEED39FDEC38FCAB59AA585D
:10263900A957A856C31250035049AE6FAF70AB07E4
:10264900AA06900192E0FCA3E0FDA3E0FEA3E0C38B
:102659009BFFEE9AFEED9400FDEC9400FCAB59AAA9
:1026690058A856D3125003401A75610BD20DE55183
:1026790065617003023681E5516561700302368137
:102689000229CDE4FCFD90015AE0F8A3E0F9A3E0AA
:10269900FAA3E02566FFEA3565FEED39FDEC38FC65
:1026A900AB55AA54A953A852C31250034003022799
:1026B9005DAE65AF66AB07AA0690015AE0FCA3E0E0
:1026C900FDA3E0FEA3E0C39BFFEE9AFEED9400FD9F
:1026D900EC9400FCAB55AA54A852D3125003407491
:1026E900E4FCFD900196E0F8A3E0F9A3E0FAA3E089
:1026F9002570FFEA356FFEED39FDEC38FCAB59AAC0
:1027090058A957A856C31250035049AE6FAF70ABC2
:1027190007AA06900196E0FCA3E0FDA3E0FEA3E072
:10272900C39BFFEE9AFEED9400FDEC9400FCAB59BF
:10273900AA58A856D3125003401A75610CD20DE558
:102749005165617003023681E55165617003023696
:10275900810229CDE4FCFD90015EE0F8A3E0F9A334
:10276900E0FAA3E02566FFEA3565FEED39FDEC38B0
:10277900FCAB55AA54A953A852C3125003400302F3
:10278900282EAE65AF66AB07AA0690015EE0FCA3F2
:10279900E0FDA3E0FEA3E0C39BFFEE9AFEED9400EB
:1027A900FDEC9400FCAB55AA54A852D31250034037
:1027B90074E4FCFD90019AE0F8A3E0F9A3E0FAA320
:1027C900E02570FFEA356FFEED39FDEC38FCAB59B9
:1027D900AA58A957A856C31250035049AE6FAF70F3
:1027E900AB07AA0690019AE0FCA3E0FDA3E0FEA3D3
:1027F900E0C39BFFEE9AFEED9400FDEC9400FCAB68
:1028090059AA58A856D3125003401A75610DD20D12
:10281900E55165617003023681E551656170030216
:1028290036810229CDE4FCFD900162E0F8A3E0F9CC
:10283900A3E0FAA3E02566FFEA3565FEED39FDEC74
:1028490038FCAB55AA54A953A852C31250034003EC
:102859000228FFAE65AF66AB07AA06900162E0FCED
:10286900A3E0FDA3E0FEA3E0C39BFFEE9AFEED9477
:1028790000FDEC9400FCAB55AA54A852D3125003A6
:102889004074E4FCFD90019EE0F8A3E0F9A3E0FAAE
:10289900A3E02570FFEA356FFEED39FDEC38FCAB9E
:1028A90059AA58A957A856C31250035049AE6FAF39
:1028B90070AB07AA0690019EE0FCA3E0FDA3E0FE31
:1028C900A3E0C39BFFEE9AFEED9400FDEC9400FC9F
:1028D900AB59AA58A856D3125003401A75610ED2A3
:1028E9000DE55165617003023681E551656170033B
:1028F9000236810229CDE4FCFD900166E0F8A3E0EF
:10290900F9A3E0FAA3E02566FFEA3565FEED39FD96
:10291900EC38FCAB55AA54A953A852C31250034032
:10292900030229D5AE65AF66AB07AA06900166E03A
:10293900FCA3E0FDA3E0FEA3E0C39BFFEE9AFEED3E
:102949009400FDEC9400FCAB55AA54A852D3125044
:10295900034079E4FCFD9001A2E0F8A3E0F9A3E0CB
:10296900FAA3E02570FFEA356FFEED39FDEC38FC7E
:10297900AB59AA58A957A856C3125003504EAE6F67
:10298900AF70AB07AA069001A2E0FCA3E0FDA3E0AB
:10299900FEA3E0C39BFFEE9AFEED9400FDEC9400CC
:1029A900FCAB59AA58A856D3125003401F75610FA2
:1029B900D20DE55165617003023681E5516561709B
:1029C90003023681856151AF6102367CC20D22E472
:1029D900FCFD9000B6E0F8A3E0F9A3E0FAA3E02536
:1029E90066FFEA3565FEED39FDEC38FCAB55AA54B6
:1029F900A953A852D31250034003022AA7AE65AFC8
:102A090066AB07AA069000B6E0FCA3E0FDA3E0FED2
:102A1900A3E0C39BFFEE9AFEED9400FDEC9400FC4D
:102A2900AB55AA54A852C31250034072E4FCFD905E
:102A390000F2E0F8A3E0F9A3E0FAA3E02570FFEAC9
:102A4900356FFEED39FDEC38FCAB59AA58A957A8EA
:102A590056D31250035047AE6FAF70AB07AA06901A
:102A690000F2E0FCA3E0FDA3E0FEA3E0C39BFFEEC0
:102A79009AFEED9400FDEC9400FCAB59AA58A856B7
:102A8900C31250034018756101D20DE5516561709B
:102A990003023681856151E56E04FF02367CE4FC50
:102AA900FD9000BAE0F8A3E0F9A3E0FAA3E02566F7
:102AB900FFEA3565FEED39FDEC38FCAB55AA54A9A2
:102AC90053A852D31250034003022B80AE65AF6660
:102AD900AB07AA069000BAE0FCA3E0FDA3E0FEA3C1
:102AE900E0C39BFFEE9AFEED9400FDEC9400FCAB75
:102AF90055AA54A852C3125003407CE4FCFD90002F
:102B0900F6E0F8A3E0F9A3E0FAA3E02570FFEA35BF
:102B19006FFEED39FDEC38FCAB59AA58A957A856F8
:102B2900D31250035051AE6FAF70AB07AA06900095
:102B3900F6E0FCA3E0FDA3E0FEA3E0C39BFFEE9A51
:102B4900FEED9400FDEC9400FCAB59AA58A856C3BD
:102B59001250034022756102D20DE551656170037F
:102B6900023681E55165617003023681856151E55F
:102B79006E2402FF02367CE4FCFD9000BEE0F8A35F
:102B8900E0F9A3E0FAA3E02566FFEA3565FEED3931
:102B9900FDEC38FCAB55AA54A953A852D3125003E3
:102BA9004003022C59AE65AF66AB07AA069000BE7A
:102BB900E0FCA3E0FDA3E0FEA3E0C39BFFEE9AFEC9
:102BC900ED9400FDEC9400FCAB55AA54A852C31235
:102BD9005003407CE4FCFD9000FAE0F8A3E0F9A37F
:102BE900E0FAA3E02570FFEA356FFEED39FDEC3818
:102BF900FCAB59AA58A957A856D31250035051AE45
:102C09006FAF70AB07AA069000FAE0FCA3E0FDA342
:102C1900E0FEA3E0C39BFFEE9AFEED9400FDEC9469
:102C290000FCAB59AA58A856C3125003402275613B
:102C390003D20DE55165617003023681E551656185
:102C49007003023681856151E56E2403FF02367CEB
:102C5900E4FCFD9000C2E0F8A3E0F9A3E0FAA3E0E8
:102C69002566FFEA3565FEED39FDEC38FCAB55AA62
:102C790054A953A852D31250034003022D32AE6512
:102C8900AF66AB07AA069000C2E0FCA3E0FDA3E093
:102C9900FEA3E0C39BFFEE9AFEED9400FDEC9400C9
:102CA900FCAB55AA54A852C3125003407CE4FCFD66
:102CB9009000FEE0F8A3E0F9A3E0FAA3E02570FF95
:102CC900EA356FFEED39FDEC38FCAB59AA58A95726
:102CD900A856D31250035051AE6FAF70AB07AA0676
:102CE9009000FEE0FCA3E0FDA3E0FEA3E0C39BFF90
:102CF900EE9AFEED9400FDEC9400FCAB59AA58A89D
:102D090056C31250034022756104D20DE551656125
:102D19007003023681E55165617003023681856170
:102D290051E56E2404FF02367CE4FCFD9000C6E008
:102D3900F8A3E0F9A3E0FAA3E02566FFEA3565FE0A
:102D4900ED39FDEC38FCAB55AA54A953A852D3125E
:102D590050034003022E0BAE65AF66AB07AA06907F
:102D690000C6E0FCA3E0FDA3E0FEA3E0C39BFFEEE9
:102D79009AFEED9400FDEC9400FCAB55AA54A852C0
:102D8900C3125003407CE4FCFD900102E0F8A3E08B
:102D9900F9A3E0FAA3E02570FFEA356FFEED39FDEE
:102DA900EC38FCAB59AA58A957A856D3125003506E
:102DB90051AE6FAF70AB07AA06900102E0FCA3E029
:102DC900FDA3E0FEA3E0C39BFFEE9AFEED9400FD98
:102DD900EC9400FCAB59AA58A856C31250034022E0
:102DE900756105D20DE55165617003023681E551C2
:102DF90065617003023681856151E56E2405FF0224
:102E0900367CE4FCFD9000CAE0F8A3E0F9A3E0FAFF
:102E1900A3E02566FFEA3565FEED39FDEC38FCAB2C
:102E290055AA54A953A852D31250034003022EE4C1
:102E3900AE65AF66AB07AA069000CAE0FCA3E0FD49
:102E4900A3E0FEA3E0C39BFFEE9AFEED9400FDEC28
:102E59009400FCAB55AA54A852C3125003407CE419
:102E6900FCFD900106E0F8A3E0F9A3E0FAA3E02550
:102E790070FFEA356FFEED39FDEC38FCAB59AA5805
:102E8900A957A856D31250035051AE6FAF70AB0774
:102E9900AA06900106E0FCA3E0FDA3E0FEA3E0C3BF
:102EA9009BFFEE9AFEED9400FDEC9400FCAB59AA51
:102EB90058A856C31250034022756106D20DE55138
:102EC90065617003023681E55165617003023681DF
:102ED900856151E56E2406FF02367CE4FCFD900015
:102EE900CEE0F8A3E0F9A3E0FAA3E02566FFEA350E
:102EF90065FEED39FDEC38FCAB55AA54A953A8522F
:102F0900D31250034003022FBDAE65AF66AB07AACB
:102F1900069000CEE0FCA3E0FDA3E0FEA3E0C39B86
:102F2900FFEE9AFEED9400FDEC9400FCAB55AA541B
:102F3900A852C3125003407CE4FCFD90010AE0F85A
:102F4900A3E0F9A3E0FAA3E02570FFEA356FFEEDEF
:102F590039FDEC38FCAB59AA58A957A856D31250D9
:102F6900035051AE6FAF70AB07AA0690010AE0FC9F
:102F7900A3E0FDA3E0FEA3E0C39BFFEE9AFEED9460
:102F890000FDEC9400FCAB59AA58A856C312500393
:102F99004022756107D20DE55165617003023681E2
:102FA900E55165617003023681856151E56E24073B
:102FB900FF02367CE4FCFD9000D2E0F8A3E0F9A31F
:102FC900E0FAA3E02566FFEA3565FEED39FDEC3848
:102FD900FCAB55AA54A953A852D31250034003027B
:102FE9003096AE65AF66AB07AA069000D2E0FCA3A7
:102FF900E0FDA3E0FEA3E0C39BFFEE9AFEED940083
:10300900FDEC9400FCAB55AA54A852C312500340DE
:103019007CE4FCFD90010EE0F8A3E0F9A3E0FAA33B
:10302900E02570FFEA356FFEED39FDEC38FCAB5950
:10303900AA58A957A856D31250035051AE6FAF7072
:10304900AB07AA0690010EE0FCA3E0FDA3E0FEA3F6
:10305900E0C39BFFEE9AFEED9400FDEC9400FCABFF
:1030690059AA58A856C31250034022756108D20DB7
:10307900E55165617003023681E5516561700302AE
:103089003681856151E56E2408FF02367CE4FCFD3A
:103099009000D6E0F8A3E0F9A3E0FAA3E02566FFE3
:1030A900EA3565FEED39FDEC38FCAB55AA54A95358
:1030B900A852D3125003400302316FAE65AF66AB1D
:1030C90007AA069000D6E0FCA3E0FDA3E0FEA3E07A
:1030D900C39BFFEE9AFEED9400FDEC9400FCAB550A
:1030E900AA54A852C3125003407CE4FCFD9001127B
:1030F900E0F8A3E0F9A3E0FAA3E02570FFEA356F51
:10310900FEED39FDEC38FCAB59AA58A957A856D39E
:103119001250035051AE6FAF70AB07AA069001125F
:10312900E0FCA3E0FDA3E0FEA3E0C39BFFEE9AFE53
:10313900ED9400FDEC9400FCAB59AA58A856C312B3
:1031490050034022756109D20DE551656170030292
:103159003681E55165617003023681856151E56EFD
:103169002409FF02367CE4FCFD9000DAE0F8A3E0D4
:10317900F9A3E0FAA3E02566FFEA3565FEED39FD1E
:10318900EC38FCAB55AA54A953A852D312500340AA
:1031990003023248AE65AF66AB07AA069000DAE0D3
:1031A900FCA3E0FDA3E0FEA3E0C39BFFEE9AFEEDC6
:1031B9009400FDEC9400FCAB55AA54A852C31250DC
:1031C90003407CE4FCFD900116E0F8A3E0F9A3E0DC
:1031D900FAA3E02570FFEA356FFEED39FDEC38FC06
:1031E900AB59AA58A957A856D31250035051AE6FDC
:1031F900AF70AB07AA06900116E0FCA3E0FDA3E0BF
:10320900FEA3E0C39BFFEE9AFEED9400FDEC940053
:10321900FCAB59AA58A856C3125003402275610A3B
:10322900D20DE55165617003023681E55165617022
:1032390003023681856151E56E240AFF02367CE47A
:10324900FCFD9000DEE0F8A3E0F9A3E0FAA3E02595
:1032590066FFEA3565FEED39FDEC38FCAB55AA543D
:10326900A953A852D31250034003023321AE65AFCC
:1032790066AB07AA069000DEE0FCA3E0FDA3E0FE32
:10328900A3E0C39BFFEE9AFEED9400FDEC9400FCD5
:10329900AB55AA54A852C3125003407CE4FCFD90DC
:1032A900011AE0F8A3E0F9A3E0FAA3E02570FFEA28
:1032B900356FFEED39FDEC38FCAB59AA58A957A872
:1032C90056D31250035051AE6FAF70AB07AA069098
:1032D900011AE0FCA3E0FDA3E0FEA3E0C39BFFEE1F
:1032E9009AFEED9400FDEC9400FCAB59AA58A8563F
:1032F900C3125003402275610BD20DE5516561700F
:1033090003023681E5516561700302368185615199
:10331900E56E240BFF02367CE4FCFD9000E2E0F848
:10332900A3E0F9A3E0FAA3E02566FFEA3565FEED1F
:1033390039FDEC38FCAB55AA54A953A852D3125005
:103349000340030233FAAE65AF66AB07AA069000E5
:10335900E2E0FCA3E0FDA3E0FEA3E0C39BFFEE9A3D
:10336900FEED9400FDEC9400FCAB55AA54A852C3A1
:10337900125003407CE4FCFD90011EE0F8A3E0F943
:10338900A3E0FAA3E02570FFEA356FFEED39FDEC05
:1033990038FCAB59AA58A957A856D3125003505113
:1033A900AE6FAF70AB07AA0690011EE0FCA3E0FD6B
:1033B900A3E0FEA3E0C39BFFEE9AFEED9400FDECB3
:1033C9009400FCAB59AA58A856C312500340227561
:1033D900610CD20DE55165617003023681E55165D5
:1033E900617003023681856151E56E240CFF023656
:1033F9007CE4FCFD9000E6E0F8A3E0F9A3E0FAA381
:10340900E02566FFEA3565FEED39FDEC38FCAB5584
:10341900AA54A953A852D312500340030234D3AE7D
:1034290065AF66AB07AA069000E6E0FCA3E0FDA342
:10343900E0FEA3E0C39BFFEE9AFEED9400FDEC9441
:1034490000FCAB55AA54A852C3125003407CE4FCBB
:10345900FD900122E0F8A3E0F9A3E0FAA3E02570CA
:10346900FFEA356FFEED39FDEC38FCAB59AA58A9D6
:1034790057A856D31250035051AE6FAF70AB07AA7D
:1034890006900122E0FCA3E0FDA3E0FEA3E0C39BBC
:10349900FFEE9AFEED9400FDEC9400FCAB59AA589E
:1034A900A856C3125003402275610DD20DE551652E
:1034B900617003023681E5516561700302368185C9
:1034C9006151E56E240DFF02367CE4FCFD9000EAB3
:1034D900E0F8A3E0F9A3E0FAA3E02566FFEA356581
:1034E900FEED39FDEC38FCAB55AA54A953A852D3CB
:1034F90012500340030235ACAE65AF66AB07AA06AE
:103509009000EAE0FCA3E0FDA3E0FEA3E0C39BFF7B
:10351900EE9AFEED9400FDEC9400FCAB55AA54A87C
:1035290052C3125003407CE4FCFD900126E0F8A34D
:10353900E0F9A3E0FAA3E02570FFEA356FFEED3963
:10354900FDEC38FCAB59AA58A957A856D312500319
:103559005051AE6FAF70AB07AA06900126E0FCA3ED
:10356900E0FDA3E0FEA3E0C39BFFEE9AFEED94000D
:10357900FDEC9400FCAB59AA58A856C3125003405D
:103589002275610ED20DE55165617003023681E540
:103599005165617003023681856151E56E240EFF24
:1035A90002367CE4FCFD9000EEE0F8A3E0F9A3E02C
:1035B900FAA3E02566FFEA3565FEED39FDEC38FC36
:1035C900AB55AA54A953A852D3125003400302364B
:1035D9007FAE65AF66AB07AA069000EEE0FCA3E0FC
:1035E900FDA3E0FEA3E0C39BFFEE9AFEED9400FD70
:1035F900EC9400FCAB55AA54A852C3125003407670
:10360900E4FCFD90012AE0F8A3E0F9A3E0FAA3E0C5
:103619002570FFEA356FFEED39FDEC38FCAB59AA90
:1036290058A957A856D3125003504BAE6FAF70AB81
:1036390007AA0690012AE0FCA3E0FDA3E0FEA3E0AF
:10364900C39BFFEE9AFEED9400FDEC9400FCAB5990
:10365900AA58A856C3125003401C75610FD20DE534
:103669005165616013E5516561600D856151E56ED4
:09367900240FFF025C14C20D22B3
:105B8A00125CB1125C3F125632C203125CED125320
:105B9A009C121C19120026123682125957125505E8
:105BAA00125D2120B2E83004E5C204AF4F125B58FF
:025BBA0080DC8D
:03000B0002587622
:10587600C0E0C0F0C083C082C0D075D000C000C0F8
:1058860001C002C003C004C005C006C007758C3C39
:10589600758AB00567123682E56775F00A84E5F009
:1058A600700AD204B206E57260021572E56775F0F9
:1058B6001484E5F0700EE55A6002155AE57160022F
:1058C6001571B202E567C394284003756700D007D7
:1058D600D006D005D004D003D002D001D000D0D05D
:0958E600D082D083D0F0D0E03272
:0300230002427224
:10427200C0E0C0F0C083C082C0D075D000C000C012
:0D42820001C002C003C004C005C006C00793
:10428F00209803024AAAC2987400256DF582E4347F
:10429F0000F583E599F0E56D2401FFE433FE7C0022
:1042AF007D64124E9C8D6DE56DFB7A002463FFEAF1
:1042BF0033FE7C007D64124EF174002DF582740084
:1042CF003CF583E0640A6003024AAAEB2462FFEA2A
:1042DF0033FE7C007D64124EF174002DF582740064
:1042EF003CF583E0640D6003024AAA7BFF7A5179A3
:1042FF0082125BE9EF6401600302484BE56DD394D2
:10430F001E5003024827753E077400253EF582E4D0
:10431F003400F583E0644E600BE53ED394155004F2
:10432F00053E80E5E53EC39416400302458A753F7E
:10433F0000E53E24F8FFE53FC39F502B7407253F50
:10434F00F582E43400F583E0FF748E253FF582E4B7
:10435F003400F583EFF0748F253FF582E43400F5D8
:10436F0083E4F0053F80CA900091E0642E60030261
:10437F00443490008EE024D0FDE434FFFCE4124D71
:10438F00688F358E348D338C3290008FE024D0FFC0
:10439F00E434FFFE7C007D0A124E8AA3E024D0FD98
:1043AF00EC34FFCD2FCD3EFCE4124D688F398E38A3
:1043BF008D378C36900093E024D0FFE434FFFE7CE1
:1043CF00007D64124E8AAA06AB07900092E024D0BB
:1043DF00FFE434FFFE7C037DE8124E8AEF2BFBEEE9
:1043EF003AFA900094E024D0FFE434FFFE7C007D85
:1043FF000A124E8AEF2BFFEE3AFEA3E024D0FDEC1B
:10440F0034FFCD2FCD3EFCE4124D68C004C005C073
:10441F0006C007900096E024D0FDE434FFFCE412C0
:10442F004D6802450E900092E0642E600302458AAB
:10443F0090008EE024D0FFE434FFFE7C007D0A1252
:10444F004E8AA3E024D0FDEC34FFCD2FCD3EFCE40B
:10445F00124D688F358E348D338C32900090E0245E
:10446F00D0FFE434FFFE7C007D0A124E8AA3E024C5
:10447F00D0FDEC34FFCD2FCD3EFCE4124D688F39CB
:10448F008E388D378C36900094E024D0FFE434FFC3
:10449F00FE7C007D64124E8AAA06AB07900093E063
:1044AF0024D0FFE434FFFE7C037DE8124E8AEF2B0D
:1044BF00FBEE3AFA900095E024D0FFE434FFFE7C47
:1044CF00007D0A124E8AEF2BFFEE3AFEA3E024D0B6
:1044DF00FDEC34FFCD2FCD3EFCE4124D68C004C07F
:1044EF0005C006C007900097E024D0FDE434FFFC20
:1044FF00E4124D687BCD7ACC79CC783D124BBDD090
:10450F0003D002D001D000124ACC8F3D8E3C8D3BA0
:10451F008C3AE4FBFA79707842AF39AE38AD37ACEC
:10452F0036124CC6AB35AA34A933A832124ACCC0C6
:10453F0004C005C006C0077B007A7C79127849AFAA
:10454F003DAE3CAD3BAC3A124CC6D003D002D001CD
:10455F00D000124ACC8F6C8E6B8D6A8C697F007E77
:10456F00247D747C49AB6CAA6BA96AA869124BBDF8
:10457F00124DA18F598E588D578C56AF3E74002F08
:10458F00F582E43400F583E064456009EFD39428A5
:10459F0050030F80E8EFC394284003024822753F71
:1045AF0000C3EF953E24FDFEE53FC39E502DE53E33
:1045BF00253F2402F582E43400F583E0FE74A22542
:1045CF003FF582E43400F583EEF074A3253FF582C6
:1045DF00E43400F583E4F0053F80C69000A6E06464
:1045EF002E60030246B09000A2E024D0FFE434FF17
:1045FF00FE7C007D0A124E8AA3E024D0FDEC34FF2E
:10460F00CD2FCD3EFCE4124D688F358E348D338C1B
:10461F00329000A4E024D0FFE434FFFE7C007D0A3A
:10462F00124E8AA3E024D0FDEC34FFCD2FCD3EFCFB
:10463F00E4124D688F398E388D378C369000A8E094
:10464F0024D0FFE434FFFE7C007D64124E8AAA065C
:10465F00AB079000A7E024D0FFE434FFFE7C037D7E
:10466F00E8124E8AEF2BFBEE3AFA9000A9E024D025
:10467F00FFE434FFFE7C007D0A124E8AEF2BFFEE23
:10468F003AFEA3E024D0FDEC34FFCD2FCD3EFCE469
:10469F00124D68C004C005C006C0079000AB0247AA
:1046AF008F9000A7E0642E60030248229000A3E0E1
:1046BF0024D0FFE434FFFE7C007D0A124E8AAA0646
:1046CF00AB079000A2E024D0FFE434FFFE7D64121C
:1046DF004E8AEF2BFFEE3AFE9000A4E024D0FDECC3
:1046EF0034FFCD2FCD3EFCE4124D688F358E348DC7
:1046FF00338C329000A5E024D0FFE434FFFE7C0021
:10470F007D0A124E8AA3E024D0FDEC34FFCD2FCDCD
:10471F003EFCE4124D688F398E388D378C36900001
:10472F00A9E024D0FFE434FFFE7C007D64124E8AA2
:10473F00AA06AB079000A8E024D0FFE434FFFE7C6C
:10474F00037DE8124E8AEF2BFBEE3AFA9000AAE0B7
:10475F0024D0FFE434FFFE7C007D0A124E8AEF2B3B
:10476F00FFEE3AFEA3E024D0FDEC34FFCD2FCD3E7B
:10477F00FCE4124D68C004C005C006C0079000AC31
:10478F00E024D0FDE434FFFCE4124D687BCD7ACCFD
:10479F0079CC783D124BBDD003D002D001D000129E
:1047AF004ACC8F3D8E3C8D3B8C3AE4FBFA79707886
:1047BF0042AF39AE38AD37AC36124CC6AB35AA3432
:1047CF00A933A832124ACCC004C005C006C0077B6B
:1047DF00007A7C79127849AF3DAE3CAD3BAC3A12D2
:1047EF004CC6D003D002D001D000124ACC8F608EBD
:1047FF005F8D5E8C5D7F007E247D747C49AB60AAEB
:10480F005FA95EA85D124BBD124DA18F558E548DC1
:10481F00538C5275720A8024753E00748E253EF5B6
:10482F0082E43400F583E4F074A2253EF582E4348B
:10483F0000F583E4F0053EE53EB414DF7BFF7A51CB
:10484F00798A125BE9EF64016003024AA7900011B5
:10485F00E064416003024AA7900033E0642C6003D8
:10486F00024AA7A3E0642C6003024AA720080302B0
:10487F004AA775680A900007E024D075F00AA4FFD4
:10488F00A3E024D02F900089F0900009E024D07588
:10489F00F00AA4FFA3E024D02F900088F090000B23
:1048AF00E024D075F00AA4FFA3E024D02F90008756
:1048BF00F0900035E024D075F00AA4FFA3E024D0D7
:1048CF002F90008AF0900037E024D075F00AA4FFF3
:1048DF00A3E024D02F90008BF0900039E024D07506
:1048EF00F00AA4FFA3E024D02F90008DF090008950
:1048FF00E02408F0E0FFC394185003024A0FEF754D
:10490F00F01884E5F0F0A3E004F0A3E0FFB4030493
:10491F007E0180027E00EFB401047F0180027F00E0
:10492F00EF4EFF90008BE0FEB405047D0180027D09
:10493F0000ED4FFFEEB407047E0180027E00EE4FC4
:10494F00FF90008BE0FEB408047D0180027D00ED36
:10495F004FFFEEB40A047E0180027E00EE4FFF90FF
:10496F00008BE0FEB40C047D0180027D00ED4F60F2
:10497F001C90008AE0D3941F5003024A0FE024E1F9
:10498F00F0A3E004F0E0D3940C40758069EEB40618
:10499F00047F0180027F0090008BE0FEB404047D51
:1049AF000180027D00ED4FFFEEB409047E0180020D
:1049BF007E00EE4FFF90008BE0B40B047E0180026F
:1049CF007E00EE4F601990008AE0D3941E4031E0D4
:1049DF0024E2F0A3E004F0E0D3940C40238017907E
:1049EF00008AE0D3941D4018E024E3F0A3E004F024
:1049FF00E0D3940C400AE024F4F090008DE004F032
:104A0F00E4FD7F8E125A2C7D807F80125A2C753ECA
:104A1F00007487253EF582E43400F583E075F00AD3
:104A2F0084FF7472253EF582E43400F583EFF07451
:104A3F0087253EF582E43400F583E075F00A84742F
:104A4F0079253EF582E43400F583E5F0F0053EE587
:104A5F003EB407BD753E007472253EF582E4340006
:104A6F00F583E0C454F0FF7479253EF582E43400F9
:104A7F00F583E02FFF7480253EF582E43400F58343
:104A8F00EFF0053EE53EB407CE125A05900086E0E2
:0B4A9F00FD7F8C125A2CC208756D00C0
:104AAA00D007D006D005D004D003D002D001D00060
:0B4ABA00D0D0D082D083D0F0D0E0320A
:104AC500024E0DE86480F8E933E83360110460F0C4
:104AD500ED33EC337009E8FCE9FDEAFEEBFF220457
:104AE50060DED3EB9FEA9EE99DE8C2E78CF0C2F752
:104AF50095F0400CE8CCF8E9CDF9EACEFAEBCFFB1E
:104B0500124DD885D0F05804700320D5B3E8047051
:104B1500075002B2D5024E1792D5EC0460F7E4CCEB
:104B2500C0E0C398F8603B94186008400DD0E0FBE6
:104B3500024DEFE4FBFAC9FC8028E830E406E4C93D
:104B4500FBE4CAFCE830E305E4C9CACBFCE854073A
:104B55006010F8C3E913F9EA13FAEB13FBEC13FC45
:104B6500D8F130F52FC3E49CFCEF9BFFEE9AFEEDE8
:104B750099FDD0E0FBEF4E4D4C701222DB03024E47
:104B850014EC2CFCEF33FFEE33FEED33FDED30E797
:104B9500EB024DEFEF2BFFEE3AFEED39FDD0E0FBDA
:104BA50050130BBB0003024E17ED13FDEE13FEEF82
:084BB50013FFEC13FC024DEFAD
:104BBD00EC4D6011E8497017ED33EC3304600DE4F2
:104BCD00FCFFFEFD22E933E8330470F8024E0D12AE
:104BDD004DD858046009E4CC2481500628500902B0
:104BED004E17284003024E14C0E0EB4A7044B980C2
:104BFD0006D0E0FB024E03EF4E701CBD8008EBFFAC
:104C0D00EAFEE9FD80EBE98DF0A4FEE5F0024CA68D
:104C1D00E9CDF9EAFEEBFFEF89F0A4FCE5F0CE89D2
:104C2D00F0A42EFFE435F0CD89F0A42DFEE435F08F
:104C3D008067EF4E7005BD80D780C3EF8BF0A4ACBD
:104C4D00F0EE8BF0A42CFCE435F0F8EF8AF0A42CF8
:104C5D00E5F038FCE433CB8DF0A42CFCE5F03BF80B
:104C6D00EE8AF0A42CFCE5F038F8E433CF89F0A4FB
:104C7D002CFCE5F038CF3400CE89F0A42FFFE5F001
:104C8D003EFEE433C98DF0A42EFEE5F039CD8AF059
:104C9D00A42FFFE5F03EFEE43DFD33D0E0FB5007D1
:104CAD000BBB000F024E17EC2CFCEF33FFEE33FE67
:064CBD00ED33FD024DEF96
:104CC300024E17EC5D046005E859047003024E0DB3
:104CD300124DD8580460F6EC4860F2EC7004FDFE07
:104CE300FF22C860DB2481C85009C39860025006C4
:104CF300024E149850CAF582E9294B4A7005AB82DB
:104D0300024E0375F0007C1A7880C3EF9BEE9AED98
:104D130099400DC3EF9BFFEE9AFEED99FDE842F03B
:104D2300DC23ACF0D0E0FFD0E0FED0E0FDAB82208E
:104D3300E7101BEB60BAEC2CFCEF33FFEE33FEED18
